S01600006B656136345F73646B5F746573742E73726563B3
S113000070050020110400004D0400004D040000A0
S113001000000000000000000000000000000000DC
S11300200000000000000000000000004D0400007B
S113003000000000000000004D0400004D0400001A
S11300404D0400004D0400004D0400004D04000068
S11300504D0400004D0400004D0400004D04000058
S1130060FD1800004D040000190B0000350B0000C2
S1130070DD0A0000F10A0000050B00006D19000004
S113008089190000191900003519000051190000E0
S1130090690B0000A51900007913000099130000F2
S11300A041140000791400004D0400004D040000C8
S11300B04D0400004D0400004D0400004D040000F8
S1130400FFFFFFFFFFFFFFFFFFFFFFFF87FFFEFF71
S113041072B60848084901600848804762B608492E
S1130420084A094B9B1A03DD043BC858D050FBDC37
S113043000F092F908ED00E000000000A9080000B7
S1130440AC1C000000FCFF1F00FCFF1F004800471D
S11304504D040000002243088B4274D303098B42ED
S11304605FD3030A8B4244D3030B8B4228D3030C80
S11304708B420DD3FF22090212BA030C8B4202D322
S11304801212090265D0030B8B4219D300E0090A4A
S1130490C30B8B4201D3CB03C01A5241830B8B4253
S11304A001D38B03C01A5241430B8B4201D34B033C
S11304B0C01A5241030B8B4201D30B03C01A5241A1
S11304C0C30A8B4201D3CB02C01A5241830A8B4226
S11304D001D38B02C01A5241430A8B4201D34B020F
S11304E0C01A5241030A8B4201D30B02C01A524173
S11304F0CDD2C3098B4201D3CB01C01A5241830927
S11305008B4201D38B01C01A524143098B4201D360
S11305104B01C01A524103098B4201D30B01C01A8B
S11305205241C3088B4201D3CB00C01A5241830805
S11305308B4201D38B00C01A524143088B4201D332
S11305404B00C01A5241411A00D201465241104692
S11305507047FFE701B5002000F0FCF802BDC0467B
S11305600029F7D003B5FFF775FF0EBC4243891A83
S11305701847C04603460B437FD4002243088B42EE
S113058074D303098B425FD3030A8B4244D3030B16
S11305908B4228D3030C8B420DD3FF22090212BADB
S11305A0030C8B4202D31212090265D0030B8B4257
S11305B019D300E0090AC30B8B4201D3CB03C01A41
S11305C05241830B8B4201D38B03C01A5241430B1C
S11305D08B4201D34B03C01A5241030B8B4201D30C
S11305E00B03C01A5241C30A8B4201D3CB02C01A77
S11305F05241830A8B4201D38B02C01A5241430AEF
S11306008B4201D34B02C01A5241030A8B4201D3DD
S11306100B02C01A5241CDD2C3098B4201D3CB0184
S1130620C01A524183098B4201D38B01C01A524133
S113063043098B4201D34B01C01A524103098B4237
S113064001D30B01C01A5241C3088B4201D3CB0022
S1130650C01A524183088B4201D38B00C01A524105
S113066043088B4201D34B00C01A5241411A00D2B5
S113067001465241104670475DE0CA0F00D049421E
S1130680031000D34042534000229C4603098B428E
S11306902DD3030A8B4212D3FC22890112BA030A16
S11306A08B420CD3890192118B4208D38901921198
S11306B08B4204D389013AD0921100E08909C3091D
S11306C08B4201D3CB01C01A524183098B4201D31F
S11306D08B01C01A524143098B4201D34B01C01A0A
S11306E0524103098B4201D30B01C01A5241C30882
S11306F08B4201D3CB00C01A524183088B4201D3F1
S11307008B00C01A5241D9D243088B4201D34B000B
S1130710C01A5241411A00D20146634652415B104D
S1130720104601D34042002B00D54942704763462E
S11307305B1000D3404201B5002000F00BF802BD6D
S11307400029F8D003B5FFF715FF0EBC4243891A00
S11307501847C0467047C04601F0EAF901F0F6F9BF
S113076009480A4A0021121A01F046F901F012FA66
S113077001F090F901F0ECF90549002000F00AF8C5
S113078001F01EF9FEE7C04600FCFF1F54FCFF1FEA
S113079000FCFF1F80B588B000AF0C23FB180022BB
S11307A01A6000225A6000229A600C23FB1801226E
S11307B01A700C23FB1800229A700C23FB18181CC7
S11307C000F0DAFF3B1C00221A6000225A6000226B
S11307D09A603B1C1A7810218A431A703B1C1A78C1
S11307E002218A431A703B1C0022DA703B1C5A789F
S11307F004210A435A703B1C5A7808210A435A7050
S11308003B1C802252045A603B1CE12252029A6033
S1130810204A3B1C101C191C00F078F81E4B1E4A81
S1130820926880210A439A601C4B1C4A52688021BA
S113083049040A435A60194B184A526980214904F1
S11308400A435A61134B181C412100F031F900236B
S1130850FB610023BB61FB690133FB61104B181C76
S113086000F04AFD0D4B0D4AD268802149040A4329
S1130870DA600023BB6102E0BB690133BB61BB6981
S1130880084A9342F8D9FB69642B01DD0023FB611C
S1130890E1E7C04600A006400080044000F00F409D
S11308A0C81B0000FEFF0F0080B500AF054B064AD1
S11308B09A80044B01225A70024B23221A70BD46BF
S11308C080BDC0460020054003E8FFFF80B582B02C
S11308D000AF78607B681B78DBB220229343DAB2E6
S11308E07B681A70BD4602B080BDC04680B582B038
S11308F000AF78607B681B78DBB220221343DAB246
S11309007B681A70BD4602B080BDC04680B586B013
S113091000AF786039603B685B687B613B689B68CB
S11309203B617B685E4A934206D15E4B5D4AD26866
S1130930802149030A43DA607B685B4A934206D10B
S1130940584B584AD268802189030A43DA607B688D
S1130950564A934206D1534B524AD2688021C90366
S11309600A43DA607B68DB78DBB20C229343DAB2A9
S11309707B68DA703B681A787B689A707B691A091D
S11309803B695B08D318181C3969FFF763FD031C26
S11309901A1C0E23FB181A807B681B78DAB20D230D
S11309A0FB181F218A431A700E23FB181B881B0A8D
S11309B09BB2DBB21F221340DAB20D23FB181B7863
S11309C01343DAB27B681A700E23FB181B88DAB261
S11309D07B685A703B68DB78012B04D17B68181C58
S11309E0FFF784FF03E07B68181CFFF76FFF3B6889
S11309F09A787B689A713B685A787B68DA703B68AE
S1130A005B7810221340DBB2002B30D13B685B785B
S1130A1020221340DBB2002B29D13B685B784022B3
S1130A201340DBB2002B22D13B685B787F229343D7
S1130A30DBB2002B1BD13B689B7802221340DBB254
S1130A40002B14D13B689B7804221340DBB2002BAB
S1130A500DD13B689B7808221340DBB2002B06D1F2
S1130A603B689B7801221340DBB2002B14D07B68D7
S1130A700B4A934202D10C2000F0CCFC7B680A4A5A
S1130A80934202D10D2000F0C5FC7B68074A9342D3
S1130A9002D10E2000F0BEFCBD4606B080BDC046AB
S1130AA000A006400080044000B0064000C006409C
S1130AB080B582B000AF78600A1CFB1C1A70C04677
S1130AC07B681B79DBB2DBB25BB2002BF8DA7B68A4
S1130AD0FA1C1278DA71BD4602B080BD80B500AF51
S1130AE0024B1B689847BD4680BDC04604FCFF1FEF
S1130AF080B500AF024B5B689847BD4680BDC046D9
S1130B0004FCFF1F80B500AF024B9B689847BD46AD
S1130B1080BDC04604FCFF1F80B500AF044B1B68BA
S1130B20002B02D0024B1B689847BD4680BDC046CF
S1130B3010FCFF1F80B500AF044B5B68002B02D094
S1130B40024B5B689847BD4680BDC04610FCFF1F42
S1130B5080B500AF034B034A126880210A431A6030
S1130B60BD4680BD00D0034080B500AFFFF7F0FF65
S1130B70044B1B68002B02D0024B1B689847BD46F0
S1130B8080BDC04618FCFF1F80B584B000AFF8607C
S1130B90B9607A607B681B68012B02D0022B07D0F6
S1130BA011E07B685B68FA68D2B2101C98470AE0CF
S1130BB07B689B68FA68D2B21A707B689B685A1C7F
S1130BC07B689A60C046BB681B685A1CBB681A6085
S1130BD0BD4604B080BDC04680B58CB000AFF8609F
S1130BE0B9607A603B600023FB61FB68BB61BB6951
S1130BF05A1CBA6100221A707B68002B33D0BB6880
S1130C001B68FB62FB6A002B06D1BB6930221A7099
S1130C10FB690133FB6159E021E0F86A3968FFF7A9
S1130C20A9FC031C7B617B693A685343FA6AD31AB3
S1130C30BB62BB6A002B04DABB6A3022D31ABB62E4
S1130C4002E0BB6A3033BB627B69FB62BB695A1C3E
S1130C50BA61BA6AD2B21A70FB690133FB61FB6AEA
S1130C60002BDAD132E0BB681B687B627B6A002B05
S1130C7006D1BB6930221A70FB690133FB6125E0A0
S1130C8021E03B68786A191CFFF7E4FB031C3B6115
S1130C903B683A6953437A6AD31A3B623B6A092B2D
S1130CA003D83B6A30333B6202E03B6A37333B6232
S1130CB03B697B62BB695A1CBA613A6AD2B21A7048
S1130CC0FB690133FB617B6A002BDAD1FB69181CD9
S1130CD0BD460CB080BDC04680B586B000AFF8609C
S1130CE0B9607A603B60FB687B6109E07A683B68C5
S1130CF03020111C1A1CFFF747FF7B6901337B610D
S1130D007A69BB689A42F1DBBD4606B080BDC04635
S1130D1080B586B000AFF860B9607A603B60FB686C
S1130D207B6109E07A683B682020111C1A1CFFF7DC
S1130D302BFF7B6901337B617A69BB689A42F1DBE3
S1130D40BD4606B080BDC04680B59CB000AFF8601B
S1130D50B9607A600023BB61BB68FB669EE2BB6C32
S1130D60252B1DD0BB6C0A2B09D0B96C1823FA189B
S1130D70FB68081C111C1A1CFFF706FF8BE21823E2
S1130D80FA18FB680D20111C1A1CFFF7FDFE18232E
S1130D90FA18FB680A20111C1A1CFFF7F5FE7AE208
S1130DA00023FB6500233B662BE0FB6E0133FB66EF
S1130DB0FB6E1B78203B102B1DD89A00CD4BD3180B
S1130DC01B689F46FB6D01221343FB6519E0FB6D15
S1130DD002221343FB6514E0FB6D04221343FB65FD
S1130DE00FE0FB6D08221343FB650AE0FB6D102244
S1130DF01343FB6505E0FB6E013BFB6601233B6689
S1130E00C0463B6E002BD0D00023BB6500233B665D
S1130E101AE0FB6E0133FB66FB6E1B78BB64BB6C94
S1130E20303B092B0AD8BA6D131C9B009B185B003E
S1130E301A1CBB6C303BD318BB6505E0FB6E013B51
S1130E40FB6601233B66C0463B6E002BE1D0FB6E84
S1130E500133FB66FB6E1B782E2B15D100233B66FA
S1130E600EE0FB6E0133FB66FB6E1B78303B092BF7
S1130E7000D805E0FB6E013BFB6601233B66C046E0
S1130E803B6E002BEDD002E0FB6E013BFB66FB6E7C
S1130E900133FB66FB6E1B78682B07D06C2B07D0E5
S1130EA04C2B07D0FB6E013BFB6604E0C04602E01E
S1130EB0C04600E0C046FB6E0133FB66FB6E1B7848
S1130EC0BB64BB6C583B202B00D9DAE19A008A4BF7
S1130ED0D3181B689F467B681A1D7A601B687B6168
S1130EE01C23FA181423FB18101C191C01220A23B2
S1130EF0FFF772FE031C7B661C23FA187B6ED31863
S1130F00BB667B69002B05DA2D237B657B6E013381
S1130F107B6615E0FB6D0222134005D02B237B6515
S1130F207B6E01337B660BE0FB6D0422134005D01E
S1130F3020237B657B6E01337B6601E000237B65A8
S1130F4000233B65FB6D0822134017D07B6D002BFB
S1130F5008D0796D1823FA18FB68081C111C1A1C98
S1130F60FFF712FE01233B65786EB96D1823FA185A
S1130F70FB68FFF7B1FEBB6D7B6618E0FB6D0122D9
S1130F80134014D1786EB96D1823FA18FB68FFF773
S1130F90BFFE7B6D002B08D0796D1823FA18FB680F
S1130FA0081C111C1A1CFFF7EFFD01233B653B6D68
S1130FB0002B0CD17B6D002B09D0796D1823FA1806
S1130FC0FB68081C111C1A1CFFF7DEFDE9E0E8E0D1
S1130FD07B681A1D7A601B683B611C23FA18102376
S1130FE0FB18101C191C00221023FFF7F5FD031C2D
S1130FF07B661C23FA187B6ED318BB6600233B6503
S1131000FB6D082213401FD0FB6D1022134011D03A
S11310101823FA18FB683020111C1A1CFFF7B4FDC2
S11310201823FA18FB687820111C1A1CFFF7ACFD72
S113103001233B65786EB96D1823FA18FB68FFF736
S11310404BFEBB6D7B6627E0FB6D0122134023D171
S1131050FB6D1022134002D07B6E02337B66786EE8
S1131060B96D1823FA18FB68FFF752FEFB6D1022C6
S1131070134011D01823FA18FB683020111C1A1CD5
S1131080FFF782FD1823FA18FB687820111C1A1C3C
S1131090FFF77AFD01233B65FB6D1022134016D048
S11310A03B6D002B13D11823FA18FB683020111C58
S11310B01A1CFFF769FD1823FA18FB687820111C25
S11310C01A1CFFF761FD7B6E02337B6669E068E002
S11310D07B681A1D7A601B683B611C23FA18102375
S11310E0FB18101C191C00220823FFF775FD031CB4
S11310F07B6638E0E41B0000281C00007B681A1D96
S11311007A601B683B611C23FA181023FB18101C1F
S1131110191C00220223FFF75FFD031C7B6622E0FB
S11311207B681A1D7A601B683B611C23FA18102324
S1131130FB18101C191C00221023FFF74DFD031C83
S11311407B6610E07B681A1D7A601B683B611C2378
S1131150FA181023FB18101C191C00220A23FFF78D
S11311603BFD031C7B661C23FA187B6ED318BB66FD
S1131170FB6D0822134009D0786EB96D1823FA1854
S1131180FB68FFF7A9FDBB6D7B660AE0FB6D0122DE
S1131190134006D1786EB96D1823FA18FB68FFF76F
S11311A0B7FD0CE0BB6E5A1EBA661B78191C1823D7
S11311B0FA18FB68081C111C1A1CFFF7E5FCBB6E2F
S11311C01B78002BEED1FB6D0122134007D0786E03
S11311D0B96D1823FA18FB68FFF79AFD5BE05AE033
S11311E07B681A1D7A601B68DBB27B64796C1823F8
S11311F0FA18FB68081C111C1A1CFFF7C5FC4AE00E
S11312007B681A1D7A601B68FB64FB6C002B2ED074
S1131210FB6C181C00F0F6FB031C7B66FB6D0122C3
S1131220134006D1786EB96D1823FA18FB68FFF7DE
S11312306FFD0CE0FB6C5A1CFA641B78191C182314
S1131240FA18FB68081C111C1A1CFFF79DFCFB6CA8
S11312501B78002BEED1FB6D0122134007D0786E72
S1131260B96D1823FA18FB68FFF752FD13E012E07A
S11312707B681A1D7A601B683B64BA693B6C1A6010
S113128009E0B96C1823FA18FB68081C111C1A1C15
S1131290FFF77AFCC046FB6E0133FB66FB6E1B78DE
S11312A0BB64BB6C002B00D059E5BB69181CBD4660
S11312B01CB080BD0FB480B586B000AF3B1D0122C9
S11312C01A603B1D0B4A5A602423FB183B61391DED
S11312D03A6A3B69081C111C1A1CFFF735FD031CF4
S11312E07B617B69181CBD4606B080BC08BC04B099
S11312F01847C0461513000080B582B000AF78606F
S11313007B68181CFFF7D6FF0023181CBD4602B0EB
S113131080BDC04680B582B000AF021CFB1D1A70B0
S1131320044AFB1D1B78101C191CFFF7C1FBBD46AA
S113133002B080BD00A0064090B583B000AF021C8F
S1131340FB1D1A700B48FB1D19780A4CFB1D1A78FB
S113135084235B001201A218D3185B6801221A438C
S113136084235B0009014118CB185A60BD4603B0C1
S113137090BDC0460070034080B500AF0020FFF769
S1131380DBFF044B1B68002B02D0024B1B68984701
S1131390BD4680BD1CFCFF1F80B500AF0120FFF7D8
S11313A0CBFF044B5B68002B02D0024B5B68984771
S11313B0BD4680BD1CFCFF1F80B582B000AF021C7F
S11313C0FB1D1A70064BFA1D1278111C1F220A40CD
S11313D0012191400A1C1A60BD4602B080BDC0467E
S11313E000E100E080B582B000AF021CFB1D1A7062
S11313F0074AFB1D1B78191C1F230B400121994030
S11314000B1C191CC0235B00D150BD4602B080BD2B
S113141000E100E080B582B000AF021CFB1D1A7031
S1131420FB1D1B785BB2181CFFF7DCFFFB1D1B7850
S11314305BB2181CFFF7C0FFBD4602B080BDC046BA
S113144080B582B000AF0A4B7B607B681B78DBB24F
S113145004221343DAB27B681A70064B1B68002B14
S113146002D0044B1B689847BD4602B080BDC046FD
S11314700090074024FCFF1F80B582B000AF0A4BE8
S11314807B607B681B78DBB204221343DAB27B688F
S11314901A70064B5B68002B02D0044B5B689847BC
S11314A0BD4602B080BDC04600A0074024FCFF1F1B
S11314B080B582B000AF021CFB1D1A700849084BAE
S11314C05B78DBB21F221340DAB2FB1D1B785B0191
S11314D0DBB21343DBB24B70BD4602B080BDC046E5
S11314E00040064080B582B000AF7860124A124BCB
S11314F01B78DBB202210B43DBB213700E4B0F4A95
S113150012789A700C4B0E4A1278DA70C0460A4B65
S11315101B79DBB21A1C40231340F8D07B689B78FC
S1131520181CFFF7C5FF074B064A926901210A43BD
S11315309A61BD4602B080BD00400640FF03000032
S1131540FE0300000080044080B582B000AF7860E4
S11315507B680433181C00F063F97B689B68181CD3
S113156000F0A8F8124A124B1B78DBB204218B431B
S1131570DBB21370C0460E4B1B79DBB21A1C10236E
S11315801340F8D1C0460A4B1B79DBB21A1C402326
S11315901340F8D07B689B78181CFFF789FF054B34
S11315A0044A926901210A439A61BD4602B080BD92
S11315B0004006400080044080B582B000AF7860EF
S11315C0154A154B1B78DBB23F210B40DBB240219F
S11315D00B43DBB21370104A0F4B5B78DBB2102164
S11315E08B43DBB25370C0460B4B1B79DBB21A1C26
S11315F00C2313409B08012BF6D17B689B78181CA5
S1131600FFF756FF054B054A926901210A439A6187
S1131610BD4602B080BDC046004006400080044084
S113162080B582B000AF78607B680433181C00F08A
S1131630F7F81E4A1D4B1B78DBB204218B43DBB247
S113164013701A49194B1B78DBB23F221340DBB2EB
S1131650802252421343DBB20B70144A134B5B7863
S1131660DBB210218B43DBB25370C0460F4B1B79A6
S1131670DBB21A1C0C2313409B08022BF6D1C04684
S11316800A4B1B79DBB21A1C10231340F8D17B6878
S11316909B78181CFFF70CFF054B054A9269012142
S11316A00A439A61BD4602B080BDC0460040064070
S11316B00080044080B582B000AF78607B68FA2275
S11316C05201934215D0FA225201934206D8202B9C
S11316D03FD0FA221201934217D043E0FA2292013A
S11316E093421ED0214A934227D0214A934200D0EC
S11316F038E0204A1F4B1B78DBB238218B43DBB226
S113170018210B43DBB213702CE01A4A194B1B78D7
S1131710DBB238218B43DBB210210B43DBB21370F5
S113172020E0144A134B1B78DBB238218B43DBB225
S113173020210B43DBB2137014E00E4A0D4B1B78CF
S1131740DBB238218B43DBB220210B43DBB21370B5
S113175008E0084A074B1B78DBB238218B43DBB225
S11317601370C046BD4602B080BDC046204E000086
S1131770102700000040064080B582B000AF7860BA
S11317807B681B78032B04D17B68181CFFF7DCFEF5
S11317903EE07B681B78042B04D17B68181CFFF7A0
S11317A03FFF35E07B681B78012B20D11A4A1A4B86
S11317B01B78DBB204210B43DBB21370164A164BC1
S11317C01B78DBB202210B43DBB21370124B124ABB
S11317D01278D2B21A707B689B78181CFFF768FEE7
S11317E00E4B0E4A926901210A439A6110E07B680C
S11317F01B78022B04D17B68181CFFF773FE07E0EB
S11318007B681B78052B03D17B68181CFFF7D4FE7B
S1131810BD4602B080BDC046004006400080044082
S113182080B584B000AF78600F23FB1800221A70D3
S11318307B681B7802221340DBB2002B07D00F23F6
S1131840FB180F22BA18127802210A431A707B6817
S11318501B7801221340DBB2002B07D00F23FB18A7
S11318600F22BA18127804210A431A707B681B7875
S113187008221340DBB2002B07D00F23FB180F22E2
S1131880BA18127820210A431A707B681B78102238
S11318901340DBB2002B07D00F23FB180F22BA181A
S11318A0127810210A431A707B681B7804221340B3
S11318B0DBB2002B08D00F23FB180F22BA181278C2
S11318C0802149420A431A700B4A0F23FB181B78E4
S11318D013707B681B7820221340DBB2002B07D0E7
S11318E0C046054B1B78DBB21A1C01231340F8D009
S11318F0BD4604B080BDC0460050064080B500AF70
S1131900044B1B68002B02D0024B1B689847BD4652
S113191080BDC0462CFCFF1F80B500AF044B1B6884
S1131920002B02D0024B1B689847BD4680BDC046C1
S113193030FCFF1F80B500AF044B5B68002B02D066
S1131940024B5B689847BD4680BDC04630FCFF1F14
S113195080B500AF044B9B68002B02D0024B9B6800
S11319609847BD4680BDC04630FCFF1F80B500AF20
S1131970044B1B68002B02D0024B1B689847BD46E2
S113198080BDC0463CFCFF1F80B500AF044B1B6804
S1131990002B02D0024B1B689847BD4680BDC04651
S11319A040FCFF1F80B500AF044B5B68002B02D0E6
S11319B0024B5B689847BD4680BDC04640FCFF1F94
S11319C038B5051C00F0A6F800F088F8084C236828
S11319D0002B02D0984700232360064C2368002B79
S11319E002D0984700232360281C00F091F838BDEA
S11319F048FCFF1F4CFCFF1F10B5041C00F009F845
S1131A00201C10BD431E01331A78002AFBD1181A7A
S1131A107047C9B230B50B1C1F2A33D90323444283
S1131A20234006D0041CD21AC01821700134A042ED
S1131A30FBD10023994206D00B060C0423430D026C
S1131A4019430B1C2B4354090FD0011C251C013DC9
S1131A500B604B608B60CB600B614B618B61CB6126
S1131A602031002DF3D164010019D106490F07D0AC
S1131A70051C0C1C013C08C5002CFBD18900401836
S1131A8003210A40002A04D08218037001309042D6
S1131A90FBD130BD10B50B4C0B4B9C4202D008CC93
S1131AA09847F9E7094C0A4B9C4202D008CC984766
S1131AB0F9E7084C084B9C4202D008CC9847F9E758
S1131AC010BDC046AC1C0000AC1C0000AC1C0000E7
S1131AD0AC1C0000AC1C0000AC1C000010B5084C91
S1131AE0084B9C4202D008CC9847F9E7064C074BB8
S1131AF0221D9A4203D023689847043CF7E710BD9F
S1131B00AC1C0000AC1C0000A81C0000AC1C0000B5
S1131B10FEE70000054B10B51C68002C04D0A0683B
S1131B20636898472468F8E710BDC04650FCFF1F5F
S1131B30054B181C002805D0854681B00020C04301
S1131B40009001B0F7467047000C0020F74670473C
S1131B50F746704710B588421BD0002A19D0031CE1
S1131B600B439C0705D1032A03D908C9043A08C0CA
S1131B70F3E7DB0707D4012A05D90B88023A03806F
S1131B8002310230E9E70B78013A03700131013088
S1131B90E3E710BD0A4B10B50A4C002B0FD0231FEE
S1131BA01968002905D020686268FFF7D3FF0C3458
S1131BB0F5E72368002BF6D16368002BF3D110BD41
S1131BC0AC1C0000B01C00000A52756E6E696E6792
S1131BD0207468652055415254302070726F6A65D4
S1131BE063742E00D80D0000F60D0000F60D000001
S1131BF0EC0D0000F60D0000F60D0000F60D0000DF
S1131C00F60D0000F60D0000F60D0000F60D0000C4
S1131C10CE0D0000F60D0000C40D0000F60D00000E
S1131C20F60D0000E20D0000D00F0000821200004B
S1131C308212000082120000821200008212000050
S1131C408212000082120000821200008212000040
S1131C50FC100000E0110000D60E0000821200000B
S1131C60821200008212000082120000D60E0000D0
S1131C708212000082120000821200008212000010
S1131C8070120000D0100000201100008212000029
S1131C9082120000001200008212000044110000B1
S10F1CA08212000082120000D00F00002D
S1131CACAC1C000000FCFF1F000000000000000042
S10B1CBC00000000000000001C
S9030411E7
